:100000000C94E8000C9410010C9410010C94100155
:100010000C9410010C9410010C9410010C9410011C
:100020000C9410010C9410010C9410010C9410010C
:100030000C9410010C9410010C9410010C941001FC
:100040000C94EF040C9410010C94BD040C949704D0
:100050000C9410010C9410010C9410010C941001DC
:100060000C9439050C9410010000000024002700B6
:100070002A0000000000250028002B0004040404CE
:100080000404040402020202020203030303030342
:10009000010204081020408001020408102001021F
:1000A0000408102053657474696E6720706F7420A3
:1000B00076616C75653A2025640A004150492076C6
:1000C000657273696F6E3A2025730A00425055209D
:1000D00076657273696F6E3A20322E33003B2000D2
:1000E0004C4F4720000000000800020100000304FC
:1000F0000700000000000000004E6F20493243203E
:100100006465766963657320666F756E640A006462
:100110006F6E650A00556E6B6E6F776E206572723A
:100120006F7220617420616464726573732030782B
:10013000253032782E0A0044657669636520617443
:100140002061646472657373203078253032782EB4
:100150000A005363616E6E696E672E2E2E0A00557B
:100160006E6B6E6F776E20636D643A00706F7420F3
:1001700073746174653A2025640A00706F740048D6
:100180005620656E61626C65643A2025640A0068D9
:100190007667656E0053657474696E672070696E6A
:1001A0002025643A200070696E0041432073746119
:1001B00074653A2025640A00706F6C61630068768C
:1001C000736574006C6F670069326300F20BEC0BAF
:1001D00011241FBECFEFD8E0DEBFCDBF22E0A8E4E0
:1001E000B1E001C01D92AE3CB207E1F711E0A0E022
:1001F000B1E0E6E8FAE202C005900D92A834B1073A
:10020000D9F710E0C7EED0E004C02197FE010E94AC
:100210002413C63ED107C9F70E9425080C94361551
:100220000C940000CF92DF92EF92FF920F931F93F6
:10023000CF93DF936C017A018B01C0E0D0E0CE1543
:10024000DF0589F0D8016D918D01D601ED91FC910A
:100250000190F081E02DC6010995892B11F47E01F2
:1002600002C02196ECCFC701DF91CF911F910F9172
:10027000FF90EF90DF90CF900895FC01918D828DDB
:10028000981761F0828DDF01A80FB11D5D968C91EA
:10029000928D9F5F9F73928F90E008958FEF9FEFF5
:1002A0000895FC01918D828D981731F0828DE80FB1
:1002B000F11D858D90E008958FEF9FEF0895FC016B
:1002C000918D228D892F90E0805C9F4F821B910938
:1002D0008F739927089589E192E00E945F0121E0E0
:1002E000892B09F420E0822F0895FC01848DDF0121
:1002F000A80FB11DA35ABF4F2C91848D90E0019699
:100300008F739927848FA689B7892C93A089B18987
:100310008C9180648C93938D848D981306C0028891
:10032000F389E02D80818F7D80830895EF92FF9285
:100330000F931F93CF93DF93EC0181E0888F9B8D08
:100340008C8D981305C0E889F989808185FD24C0CA
:10035000F62E0B8D10E00F5F1F4F0F731127E02E4D
:100360008C8DE8120CC00FB607FCFACFE889F9892A
:10037000808185FFF5CFCE010E947501F1CF8B8D75
:10038000FE01E80FF11DE35AFF4FF0820B8FEA895F
:10039000FB898081806207C0EE89FF896083E889DC
:1003A000F98980818064808381E090E0DF91CF9142
:1003B0001F910F91FF90EF900895CF93DF93EC0181
:1003C000888D8823C9F0EA89FB89808185FD05C075
:1003D000A889B9898C9186FD0FC00FB607FCF5CFAF
:1003E000808185FFF2CFA889B9898C9185FFEDCFF7
:1003F000CE010E947501E7CFDF91CF91089580E093
:1004000090E0892B29F00E946B0181110C9400006F
:10041000089590E0FC01EB51FF4F3491FC01E0574F
:10042000FF4F2491FC01E458FF4FE491EE2309F4BF
:100430003BC0332339F1333091F038F43130A9F037
:10044000323001F584B58F7D12C0373091F03830ED
:10045000A1F03430B9F4809180008F7D03C0809189
:1004600080008F77809380000DC084B58F7784BD26
:1004700009C08091B0008F7703C08091B0008F7D5C
:100480008093B000F0E0EE0FFF1FEE58FF4FA591F4
:10049000B4918FB7F894EC91611103C020952E238D
:1004A00001C02E2B2C938FBF0895CF93DF9390E044
:1004B000FC01E057FF4F2491FC01E458FF4F849169
:1004C000882361F190E0880F991FFC01E859FF4FE4
:1004D000C591D491FC01EE58FF4FA591B4916111E3
:1004E00009C09FB7F8948881209582238883EC9176
:1004F0002E230BC0623061F49FB7F8943881822FAD
:10050000809583238883EC912E2B2C939FBF06C06C
:100510008FB7F894E8812E2B28838FBFDF91CF917E
:1005200008958E3008F08E508770806480937C0030
:1005300080917A00806480937A0080917A0086FDB1
:10054000FCCF809178002091790090E0922B089563
:1005500085ED8093BC008091BC0084FDFCCF10929F
:10056000F401089540916C01262F30E0240F311DD5
:1005700021323105DCF42091F4012430C9F4FC016E
:1005800080E090E0861758F430916C012191DC01F5
:10059000A65BBE4FA30FB11D2C930196F3CF8091A4
:1005A0006C01680F60936C0180E0089581E008950C
:1005B00082E008950895E0919D0180919C01E817E3
:1005C00030F4F0E0E256FE4F808190E008958FEF26
:1005D0009FEF089590919D0180919C01981750F490
:1005E000E92FF0E0E256FE4F208130E09F5F9093CC
:1005F0009D0102C02FEF3FEFC901089580919C013A
:1006000090E020919D01821B91090895CF92DF9285
:10061000EF92FF920F931F93CF93DF937C01262FCE
:10062000972F8A018091F501882391F0C62FD72F4B
:100630006E01C40ED51ECC15DD0571F06991D70190
:10064000ED91FC910190F081E02DC7010995F3CF68
:10065000642F822F0E94B202C801DF91CF911F91B7
:100660000F91FF90EF90DF90CF900895CF93DF939D
:100670001F92CDB7DEB769832091F5012223D1F017
:1006800020911802203240F021E030E0FC01338359
:10069000228380E090E015C08091F601E82FF0E021
:1006A000E950FE4F998190838F5F8093F60180938C
:1006B000180205C061E0CE0101960E94B20281E0FD
:1006C00090E00F90DF91CF910895CF938CB5806229
:1006D0008CBDCFB7F89480914901811127C0E6E81D
:1006E000F0E08491EAE9F0E09491E82FF0E0EE0F79
:1006F000FF1FE859FF4FA591B491EC91E92321F434
:1007000061E08AE00E94090261E08AE00E945502ED
:100710008CB580618CBD8CB580648CBD61E08DE052
:100720000E94550261E08BE00E94550280914901D0
:100730008F5F80934901CFBFEEEBF1E098E09E0F11
:10074000819180958EBD00000DB407FEFDCF8EB562
:100750009E13F6CF9FB7F89480914901882319F032
:1007600081508093490180914901811105C08CB568
:100770008F7B8CBD109248019FBF60E087E00E9494
:10078000090261E087E0CF910C940902FB012491FA
:10079000222369F0FC014191CF01042E000C550B7E
:1007A00030E04217530729F46F5F7F4FEFCF81E0AE
:1007B000089580E0089591E09093F5019FE2909371
:1007C00017021092F60110921802682F86EB92E041
:1007D0000E94360381E00C94E9060E9421150F93D4
:1007E0001F93CF93DF93EC0188819981009729F0C3
:1007F0002A813B812617370788F48B016F5F7F4F73
:100800000E945714009761F0998388831B830A83A1
:100810002C813D81232B11F4FC01108281E001C069
:1008200080E0DF91CF911F910F910895FF920F9378
:100830001F93CF93DF9387E291E00E946706CEEB90
:10084000D1E0FC2E88E0F80E00E010E0888190E016
:10085000002E02C0959587950A94E2F780FD02C0AC
:1008600080E301C081E30E9446070F5F1F4F0830FD
:10087000110561F72196FC12E7CF83E391E0DF9148
:10088000CF911F910F91FF900C946706CF93DF9348
:10089000CDB7DEB7C058D1090FB6F894DEBF0FBE92
:1008A000CDBF9E012B573F4FF901419151919F01BF
:1008B00060E870E0CE0101960E947A0DCE010196AB
:1008C0000E946706C058DF4F0FB6F894DEBF0FBE18
:1008D000CDBFDF91CF910895EF92FF920F931F93B9
:1008E000CF93DF93EC017B018A01BA010E94EF03F1
:1008F0002881398181110DC02115310519F0C901F7
:100900000E94BF13198218821D821C821B821A82C8
:1009100006C01D830C83B701C9010E942F15CE01AB
:10092000DF91CF911F910F91FF90EF9008951F924B
:100930000F920FB60F9211242F933F934F935F9313
:100940006F937F938F939F93AF93BF93EF93FF9397
:1009500089E192E00E947501FF91EF91BF91AF9103
:100960009F918F917F916F915F914F913F912F91C7
:100970000F900FBE0F901F9018951F920F920FB6F9
:100980000F9211242F938F939F93EF93FF93E091F6
:100990002902F0912A028081E0912F02F091300229
:1009A00082FD12C09081809132028F5F8F732091FF
:1009B0003302821751F0E0913202F0E0E75EFD4F22
:1009C000958F8093320201C08081FF91EF919F91BA
:1009D0008F912F910F900FBE0F901F9018951F921F
:1009E0000F920FB60F9211242F933F938F939F93E3
:1009F000AF93BF938091960190919701A091980138
:100A0000B09199013091950123E0230F2D3720F407
:100A10000196A11DB11D05C026E8230F0296A11D58
:100A2000B11D209395018093960190939701A09317
:100A30009801B09399018091910190919201A091B8
:100A40009301B09194010196A11DB11D8093910174
:100A500090939201A0939301B0939401BF91AF91B1
:100A60009F918F913F912F910F900FBE0F901F90EC
:100A700018951F920F920FB60F9211242F933F9348
:100A80004F935F936F937F938F939F93AF93BF9396
:100A9000EF93FF938091B900887F803609F49CC062
:100AA00068F5883209F45BC090F4803109F454C0D1
:100AB00038F4882309F4F6C0883009F44DC0F6C034
:100AC000883109F44CC0803209F45DC0EFC0803435
:100AD00009F468C048F4803309F455C0883309F03C
:100AE000E5C08093F201D8C0803509F44FC0883545
:100AF00009F45DC0883409F0D9C0D6C0883909F43A
:100B0000C7C0A8F4883709F467C038F4883609F4F8
:100B100063C0803709F460C0C9C0883809F4B8C020
:100B2000803909F45FC0803809F0C0C05BC0803BE9
:100B300009F486C038F4803A09F466C0883A09F4AA
:100B40007FC0B4C0803C09F4A7C0883C09F4A4C0AD
:100B5000883B09F48AC0AAC08091CF0110C090914F
:100B6000F1018091F001981770F5E091F10181E0B9
:100B70008E0F8093F101F0E0E053FE4F808180936F
:100B8000BB0085EC86C08093F2018EC0E091F1013C
:100B900081E08E0F8093F1018091BB00F0E0E05383
:100BA000FE4F80839091F1018091F0016EC0E09141
:100BB000F10181E08E0F8093F1018091BB00F0E0A4
:100BC000E053FE4F80838091F30181116DC081E07D
:100BD0008093CE0184EA61C083E08093F401109297
:100BE0009001CFCF80919001803208F051C0E09108
:100BF000900181E08E0F809390018091BB00F0E026
:100C0000E059FE4F8083BDCF85EC8093BC001092ED
:100C1000F40180919001803230F4E0919001F0E095
:100C2000E059FE4F10826091900170E0E0916E01FA
:100C3000F0916F0180E791E009951092900136C024
:100C400084E08093F40110926D0110926C01E091A8
:100C50006A01F0916B01099580916C01811105C0C9
:100C600081E080936C0110924A01E0916D0181E076
:100C70008E0F80936D01F0E0E65BFE4F80818093E4
:100C8000BB0090916D0180916C01981708F479CFA9
:100C900085E88093BC000AC085EC8093BC0010926C
:100CA000F40104C01092F2010E94A802FF91EF919A
:100CB000BF91AF919F918F917F916F915F914F9174
:100CC0003F912F910F900FBE0F901F901895009796
:100CD00069F0FC0101900020E9F73197AF01481B52
:100CE000590BBC0189E192E00C94120180E090E084
:100CF00008958F929F92AF92BF920F931F93CF93BD
:100D0000DF93CDB7DEB7A1970FB6F894DEBF0FBE65
:100D1000CDBF19A2423008F44AE08E010F5D1F4F8B
:100D2000842E912CA12CB12CA50194010E9471114B
:100D3000E62FB901CA0101501109EA3014F4E05D4F
:100D400001C0E95CD801EC93232B242B252B61F700
:100D5000C8010E946706A1960FB6F894DEBF0FBEC9
:100D6000CDBFDF91CF911F910F91BF90AF909F901A
:100D70008F9008950F931F93CF93DF938C01C0E062
:100D8000D0E0F801EC0FFD1F6491662371F0E09153
:100D90001902F0911A020190F081E02D89E192E0B0
:100DA0000995892B11F02196ECCFCE01DF91CF91DF
:100DB0001F910F910895CF93DF930E94BA06EC0123
:100DC00083E391E00E9467068C0F9D1FDF91CF9116
:100DD0000895382F2091180290911702213208F0BF
:100DE00049C08091F4018111FCCF42E04093F401AD
:100DF0003093F3013FEF3093F2011092F101209311
:100E0000F001A7EFB1E040ED51E0FA013E2F341BB5
:100E1000321718F43D913193F9CF1092CF01209100
:100E2000CF01990F922B9093CF019091CE019130E9
:100E300061F41092CE019091CF019093BB009091FC
:100E4000BC0093FDF8CF95EC01C095EE9093BC00EB
:100E50009091F4019230E1F39091F2019F3F79F08B
:100E60008091F201803241F08091F201803331F0C3
:100E700084E005C081E003C082E001C083E01092FD
:100E8000F601109218021092F5010895E0911902EE
:100E9000F0911A020190F081E02D682F89E192E033
:100EA00009944F925F926F927F928F929F92AF922E
:100EB000BF92CF92DF92EF92FF926B017C01B42E32
:100EC0009B01AC010E94F712882319F08CE391E09A
:100ED00027C026013701E89477F82FEF3FEF4FE75F
:100EE0005FE7C301B2010E94F71281110DC02FEF1D
:100EF0003FEF4FE75FE7C301B2010E9427101816CA
:100F00001CF480E491E00CC02FEF3FEF4FE75FE46B
:100F1000C701B6010E94F212181684F484E491E02D
:100F2000FF90EF90DF90CF90BF90AF909F908F9009
:100F30007F906F905F904F900C9467062FEF3FEF7C
:100F40004FE75FECC701B6010E94271087FDE6CF8F
:100F500020E030E0A901C701B6010E94271087FFF9
:100F600009C08DE20E9446074C01F7FAF094F7F8A9
:100F7000F09402C0812C912CA12C60E070E080E004
:100F80009FE3AB1441F020E030E040E251E40E94E6
:100F90005112A394F6CF9B01AC01C701B6010E9488
:100FA000E5112B013C010E94C3126B017C010E94E0
:100FB0002C109B01AC01C301B2010E94E4112B0172
:100FC0003C014AE0C701B6010E9479067C01E80CA9
:100FD000F91CBB2029F08EE20E944607E80EF91E9C
:100FE000DB2CDD2021F120E030E040E251E4C301C0
:100FF000B2010E948D102B013C010E94C3124B01D3
:10100000A12CB12C4AE0C501B4010E947906E80E7A
:10101000F91EC501B4010E942C109B01AC01C30153
:10102000B2010E94E4112B013C01DA94DACFC7012E
:10103000FF90EF90DF90CF90BF90AF909F908F90F8
:101040007F906F905F904F900895CF93DF9300D083
:1010500000D000D0CDB7DEB7789484B5826084BD6F
:1010600084B5816084BD85B5826085BD85B58160AC
:1010700085BD80916E00816080936E00109281002A
:1010800080918100826080938100809181008160E5
:1010900080938100809180008160809380008091A6
:1010A000B10084608093B1008091B0008160809332
:1010B000B00080917A00846080937A0080917A00F9
:1010C000826080937A0080917A00816080937A00B8
:1010D00080917A00806880937A001092C100E0913C
:1010E0002902F0912A0282E08083E0912502F091AA
:1010F00026021082E0912702F09128028FEC808373
:1011000010923102E0912D02F0912E0286E0808350
:10111000E0912B02F0912C02808180618083E0912C
:101120002B02F0912C02808188608083E0912B0259
:10113000F0912C02808180688083E0912B02F091F5
:101140002C0280818F7D80838CEC90E00E94DB06F6
:1011500086E391E09F938F938BEB90E09F938F9327
:101160000E94460410929D0110929C011092F6017B
:10117000109218021092F40181E08093F301109212
:10118000CE0161E082E10E94090261E083E10E94F8
:1011900009028091B9008E7F8093B9008091B900D7
:1011A0008D7F8093B90088E48093B80085E48093B4
:1011B000BC0061E08BE00E94550261E08DE00E947E
:1011C000550261E088E00E94550261E088E00E94DB
:1011D000090261E089E00E94550260E089E00E9416
:1011E000090261E086E00E94550260E086E00E940C
:1011F000090260E085E00E94550260E084E00E9400
:101200005502809100011F928F9384EA90E09F9392
:101210008F930E944604809100010E94DB0361E0ED
:1012200087E00E94550261E087E00E9409020E9467
:1012300065030FB6F894DEBF0FBECDBF7CE6272E48
:1012400071E0372EEFE74E2EE1E05E2EF5E9CF2E6E
:10125000F1E0DF2E8EEB91E038E0380F3C83A5E122
:10126000AA2EA1E0BA2EB7E38B2EB1E09B2E2FB7AA
:10127000F8948091960190919701A0919801B09176
:1012800099012FBF2091CA013091CB018C01021B23
:10129000130B8093CA019093CB01A093CC01B09320
:1012A000CD018091C8019091C901800F911F893CA7
:1012B00091052CF49093C9018093C80110C0885CFB
:1012C00091099093C9018093C801F090C7016F2DD7
:1012D00083E00E94090281E08F198093C701809109
:1012E000C601882309F449C080919A0190919B011D
:1012F000800F911F893C91052CF490939B01809362
:101300009A013BC0885C910990939B0180939A015C
:1013100080E10E9491028FE00E9491027C018EE0A8
:101320000E9491028C0180EE90E00E94BA06B70103
:10133000FF0C880B990B0E942E1020E030E040EF4C
:101340005CE30E948D1042E00E9451078DED90E019
:101350000E94BA06B801110F880B990B0E942E103B
:1013600020E030E343E150E40E948D1043E00E940E
:10137000510783E391E00E94670689E192E00E94B1
:101380005F01181619060CF0C7C189E192E00E94AE
:101390003D018A3009F09EC10091C2021091C30242
:1013A00068EC71E0C8010E94C6038823F1F182E570
:1013B00091E00E94DB0666246394712C00E010E04B
:1013C000FF24F394F092F501609217021092F60157
:1013D0001092180281E00E94E906811109C07F92F3
:1013E0006F929F928F920E9446040F5F1F4F08C01A
:1013F000843051F47F926F92BF92AF920E94460464
:101400000F900F900F900F908FEF681A780A9FE758
:1014100069167104B9F6012B19F489EF90E002C046
:101420008FE091E00E94DB064CC164EC71E0C801E2
:101430000E94C603882359F0C80103960E944B0DF1
:1014400021E0892B09F420E02093C6013AC16EEB1C
:1014500071E0C8010E94C6038823A1F12091C60251
:1014600026505EEB652E51E0752EF30111923C8102
:101470003E13FCCF780187E0E80EF11C095E1F4F98
:10148000223008F462C0E016F10609F45EC0198249
:101490001A821B82F701319780818983F70180814D
:1014A0008A8340E150E060E070E0CE0101962D8338
:1014B0000E94390CF30161933F01F2E0EF0EF11C41
:1014C0002D81DECF68EB71E0C8010E94C603811157
:1014D00041C066EA71E0C8010E94C603882309F48E
:1014E00043C0C80104960E944B0D9F938F93DF92D7
:1014F000CF928D839E830E9446048D819E819C01A4
:101500000F900F900F900F9097FF02C0295F3F4FF1
:1015100043E0359527954A95E1F768E070E00E9431
:10152000FC12982F81E001C0880F9A95EAF7EEEB44
:10153000F1E040E050E024173507A1F4982F919393
:101540004F5F5F4F48305105B1F70E9416040E946B
:101550006503B7C0C80105960E944B0D892B09F0A1
:10156000DEC034C190E0EBCF6FE871E0C8010E94AB
:10157000C6038823C1F0C80105960E944B0D8C015B
:101580001F938F935F924F920E94460461E0011572
:10159000110509F060E088E00E940902602F89E0EF
:1015A0000E94090275C06BE771E0C8010E94C60382
:1015B000882309F472C0F80183818F33B9F0C80120
:1015C00003960E944B0D182F87FD1FE71093000113
:1015D00080E090E00E944B11181729F0612F80E005
:1015E00090E00E945311812F0E94DB038091F4014F
:1015F0008111FCCF81E08093F4018093F3019FEF90
:101600009093F2011092F1011092F0018093CF01BA
:101610008091CF018E658093CF018091CE01813082
:1016200061F41092CE018091CF018093BB00809134
:10163000BC0083FDF8CF85EC01C085EE8093BC0033
:101640008091F4018130E1F38091F101811103C0B7
:101650008091F10101C081E0A0EDB1E0EEE9F1E09F
:101660009E2F2EE931E0921B981718F49D919193CB
:10167000F7CF10929D0180939C0186EB92E00E942F
:10168000EA0299279F938F933F922F920E944604DC
:101690000F900F900F900F9014C08FE591E00E9473
:1016A000BA064091C6025091C7026091C202709181
:1016B000C30289E192E00E94120183E391E00E945B
:1016C000670640E050E065E371E082EC92E00E9442
:1016D0006C0422C089831A820091C6021091C7024D
:1016E0000F5F1F4FB80182EC92E00E94EF03882346
:1016F00099F02091C2023091C3028091C60290916C
:10170000C702BE016F5F7F4F820F931F0E942F158C
:101710001093C7020093C6020E94FF01A8CD61E0AA
:1017200086E00E945502EBEEF0E0E491E33061F4D4
:101730008091800080688093800080E890E09093A2
:1017400089008093880009C0E430E0F4E13069F456
:1017500084B5806884BD80E887BD81E01F928F9347
:101760008AEA91E09F938F9391CFE23031F484B570
:10177000806284BD80E888BDF0CF61E086E00E9491
:101780000902EBCFE73049F48091B0008068809384
:10179000B00080E88093B300E0CFE83049F4809156
:1017A000B00080628093B00080E88093B400D5CF11
:1017B000E43019F78091800080628093800080E897
:1017C00090E090938B0080938A00C7CF60E086E022
:1017D0000E94090280E0C2CF8091C2029091C302B0
:1017E0000C94BF13E9E1F2E01382128288EE93E0D9
:1017F000A0E0B0E084839583A683B7832BE031E03B
:101800003183208325EC30E03587248724EC30E0D9
:101810003787268720EC30E0318B208B21EC30E0BD
:10182000338B228B22EC30E0358B248B26EC30E09E
:10183000378B268B118E128E138E148EE6EBF2E010
:101840001382128284839583A683B7838BE191E010
:1018500091838083E2ECF2E0118210821382128283
:101860001582148240E050E065E371E0CF010C94F2
:101870006C04A6E0B0E0EFE3FCE00C949E115C0188
:101880006B017A016115710519F0DB018D939C9351
:10189000E114F10429F0C7010297839708F0DCC036
:1018A0003501BFEF6B1A7B0AF5011081812F90E0A3
:1018B0000E94690D892B11F05301F2CF1D3249F4BA
:1018C0003501F2E06F0E711CD50111961C9101E0FB
:1018D00009C01B3231F43501B2E06B0E711CF50109
:1018E000118100E0E114F10409F4C4C0F0E1EF1645
:1018F000F10489F4103399F5D3018C918F7D8835EB
:1019000009F0B2C011961C91B2E06B0E711C02601E
:1019100050E1E52EF12CEAE0EE16F10409F4B0C036
:10192000F0E1EF16F104D9F028E0E216F10451F4E9
:1019300038E0E32EF12C88248A94982CA82C4FE1CF
:10194000B42E13C06FEF7FEFCB0197010F2C000C6B
:10195000440B550B0E94711149015A0106C088249D
:101960008A94982CA82C2FE0B22E7E826D8260E0A3
:1019700020E030E0A90127010F2C000C6608770851
:101980002D803E80E0EDE10FEA3060F08FEB810FBB
:101990008A3110F4E9EC05C08FE9810F8A3190F5A6
:1019A000E9EAE10F8E2F90E08E159F055CF56F3F01
:1019B00009F182169306A406B506D8F0C301B20158
:1019C0000E9461112E2F30E040E050E029833A83DD
:1019D0004B835C83260F371F481F591F89819A81CB
:1019E000AB81BC81281739074A075B0710F061E01B
:1019F00001C06FEFED81FE813196FE83ED83D10151
:101A00001C91BECFC114D10489F0662339F08D81B9
:101A10009E810197F6019183808308C001FF06C073
:101A20008D819E810297D6018D939C9300FF07C004
:101A300050954095309521953F4F4F4F5F4F67FF31
:101A400010C082E290E09093C9028093C8026FEFC9
:101A50007FEF8FEF9FEF1BC060E070E080E090E0D1
:101A600016C0B901CA0113C010E3E114F10409F46E
:101A70005FCF51CF103309F43FCF9AE0E92EF12C1C
:101A800089E9882E982CA82C89E1B82E6ECF26964D
:101A9000E2E10C94BA11FC0188279927E89421917E
:101AA0002032E9F3293010F02E30C8F32B3241F008
:101AB0002D3239F4689404C00E94720D820F911D7A
:101AC000219120532A30C0F31EF4909581959F4FA9
:101AD000089591110C94780F803219F08950855037
:101AE000C8F708957AE0979F902D879F802D910DDC
:101AF00011240895AEE0B0E0E0E8FDE00C94AC11F4
:101B00008C01CA014EE04C831A83098377FF02C01F
:101B100060E070E8FB013197FE83ED83A901BC0111
:101B2000CE0101960E94A60D4D815E8157FD0AC02F
:101B30002F813885421753070CF49A01F801E20F00
:101B4000F31F10822E96E4E00C94C811ACE0B0E0D4
:101B5000ECEAFDE00C949E117C016B018A01FC0112
:101B600017821682838181FFBDC1CE0101964C018F
:101B7000F7019381F60193FD859193FF81916F01A8
:101B8000882309F4ABC1853239F493FD859193FF25
:101B900081916F01853229F4B70190E00E94910F85
:101BA000E7CF512C312C20E02032A0F48B3269F0A9
:101BB00030F4803259F0833269F420612CC08D32C8
:101BC00039F0803339F4216026C02260246023C0BC
:101BD000286021C027FD27C030ED380F3A3078F457
:101BE00026FF06C0FAE05F9E300D1124532E13C06D
:101BF0008AE0389E300D1124332E20620CC08E32C4
:101C000021F426FD6BC1206406C08C3611F42068D7
:101C100002C0883641F4F60193FD859193FF8191CE
:101C20006F018111C1CF982F9F7D9554933028F477
:101C30000C5F1F4FFFE3F9830DC0833631F083370C
:101C400071F0833509F05BC022C0F801808189837F
:101C50000E5F1F4F44244394512C540115C038018A
:101C6000F2E06F0E711CF801A080B18026FF03C066
:101C7000652D70E002C06FEF7FEFC5012C870E94D9
:101C8000860F2C0183012C852F77222E17C0380157
:101C9000F2E06F0E711CF801A080B18026FF03C036
:101CA000652D70E002C06FEF7FEFC5012C870E94A9
:101CB0007B0F2C012C852068222E830123FC1BC066
:101CC000832D90E048165906B0F4B70180E290E009
:101CD0000E94910F3A94F4CFF50127FC859127FEDD
:101CE00081915F01B70190E00E94910F31103A9409
:101CF000F1E04F1A51084114510471F7E5C08436E0
:101D000011F0893639F5F80127FF07C0608171812C
:101D1000828193810C5F1F4F08C060817181072E03
:101D2000000C880B990B0E5F1F4F2F76722E97FFBA
:101D300009C090958095709561957F4F8F4F9F4F0B
:101D40002068722E2AE030E0A4010E94C90FA82E5C
:101D5000A81844C0853729F42F7EB22E2AE030E03F
:101D600025C0F22FF97FBF2E8F36C1F018F48835C9
:101D700079F0B4C0803719F0883721F0AFC02F2F29
:101D80002061B22EB4FE0DC08B2D8460B82E09C028
:101D900024FF0AC09F2F9660B92E06C028E030E0CD
:101DA00005C020E130E002C020E132E0F801B7FEDA
:101DB00007C060817181828193810C5F1F4F06C0D3
:101DC0006081718180E090E00E5F1F4FA4010E944E
:101DD000C90FA82EA818FB2DFF777F2E76FE0BC00B
:101DE000372D3E7FA51450F474FE0AC072FC08C063
:101DF000372D3E7E05C0BA2C372D03C0BA2C01C04A
:101E0000B52C34FF0DC0FE01EA0DF11D8081803339
:101E100011F4397E09C032FF06C0B394B39404C0F4
:101E2000832F867809F0B39433FD13C030FF06C0CA
:101E30005A2CB31418F4530C5B18B32CB31468F475
:101E4000B70180E290E03C870E94910FB3943C85FB
:101E5000F5CFB31410F43B1801C0312C34FF12C07D
:101E6000B70180E390E03C870E94910F3C8532FFF0
:101E700017C031FD03C088E790E002C088E590E01C
:101E8000B7010CC0832F867859F031FF02C08BE276
:101E900001C080E237FD8DE2B70190E00E94910F12
:101EA000A51438F4B70180E390E00E94910F5A9492
:101EB000F7CFAA94F401EA0DF11D8081B70190E0FB
:101EC0000E94910FA110F5CF332009F451CEB70134
:101ED00080E290E00E94910F3A94F6CFF70186815C
:101EE000978102C08FEF9FEF2C96E2E10C94BA111C
:101EF000992788270895FC010590615070400110D2
:101F0000D8F7809590958E0F9F1F0895FC01615022
:101F1000704001900110D8F7809590958E0F9F1F0B
:101F200008950F931F93CF93DF93FB01238121FD2E
:101F300003C08FEF9FEF28C022FF16C04681578154
:101F4000248135814217530744F4A081B1819D015A
:101F50002F5F3F4F318320838C93268137812F5F02
:101F60003F4F3783268310C0EB01092F182F0084C1
:101F7000F185E02D0995892BE1F68E819F810196EF
:101F80009F838E83812F902FDF91CF911F910F918F
:101F90000895FA01AA27283051F1203181F1E894FF
:101FA0006F936E7F6E5F7F4F8F4F9F4FAF4FB1E04C
:101FB0003ED0B4E03CD0670F781F891F9A1FA11D47
:101FC000680F791F8A1F911DA11D6A0F711D811D48
:101FD000911DA11D20D009F468943F912AE0269F0D
:101FE00011243019305D3193DEF6CF010895462F6C
:101FF0004770405D4193B3E00FD0C9F7F6CF462F4D
:102000004F70405D4A3318F0495D31FD40524193B5
:1020100002D0A9F7EACFB4E0A69597958795779572
:102020006795BA95C9F700976105710508959B01F9
:10203000AC010A2E06945795479537952795BA9582
:10204000C9F7620F731F841F951FA01D08950E947A
:10205000691008F481E00895E89409C097FB3EF404
:1020600090958095709561957F4F8F4F9F4F9923E5
:10207000A9F0F92F96E9BB279395F6958795779563
:102080006795B795F111F8CFFAF4BB0F11F460FF23
:102090001BC06F5F7F4F8F4F9F4F16C0882311F07B
:1020A00096E911C0772321F09EE8872F762F05C08F
:1020B000662371F096E8862F70E060E02AF09A952A
:1020C000660F771F881FDAF7880F9695879597F91F
:1020D0000895990F0008550FAA0BE0E8FEEF1616B9
:1020E0001706E807F907C0F012161306E407F5070C
:1020F00098F0621B730B840B950B39F40A2661F080
:10210000232B242B252B21F408950A2609F4A14022
:10211000A6958FEF811D811D08950E94A0100C943B
:1021200011110E94031138F00E940A1120F095232A
:1021300011F00C94FA100C94001111240C94451118
:102140000E94221170F3959FC1F3950F50E0551F27
:10215000629FF001729FBB27F00DB11D639FAA27FC
:10216000F00DB11DAA1F649F6627B00DA11D661F4B
:10217000829F2227B00DA11D621F739FB00DA11D6C
:10218000621F839FA00D611D221F749F3327A00D26
:10219000611D231F849F600D211D822F762F6A2FC2
:1021A00011249F5750409AF0F1F088234AF0EE0F27
:1021B000FF1FBB1F661F771F881F91505040A9F754
:1021C0009E3F510580F00C94FA100C9445115F3F2E
:1021D000E4F3983ED4F3869577956795B795F79590
:1021E000E7959F5FC1F7FE2B880F911D9695879508
:1021F00097F9089597F99F6780E870E060E0089587
:102200009FEF80EC089500240A941616170618060E
:102210000906089500240A941216130614060506EA
:102220000895092E0394000C11F4882352F0BB0F7B
:1022300040F4BF2B11F460FF04C06F5F7F4F8F4FDE
:102240009F4F089557FD9058440F551F59F05F3F19
:1022500071F04795880F97FB991F61F09F3F79F0C8
:1022600087950895121613061406551FF2CF46954A
:10227000F1DF08C0161617061806991FF1CF8695CC
:102280007105610508940895E894BB2766277727B0
:10229000CB0197F90895F999FECF92BD81BDF89AC7
:1022A000992780B50895262FF999FECF1FBA92BDC0
:1022B00081BD20BD0FB6F894FA9AF99A0FBE019627
:1022C0000895DB018F939F930E949311BF91AF916B
:1022D000A29F800D911DA39F900DB29F900D112480
:1022E0000895A1E21A2EAA1BBB1BFD010DC0AA1F57
:1022F000BB1FEE1FFF1FA217B307E407F50720F06F
:10230000A21BB30BE40BF50B661F771F881F991FE9
:102310001A9469F760957095809590959B01AC0132
:10232000BD01CF0108950E94D511A59F900DB49FC6
:10233000900DA49F800D911D112408952F923F921E
:102340004F925F926F927F928F929F92AF92BF92C5
:10235000CF92DF92EF92FF920F931F93CF93DF9371
:10236000CDB7DEB7CA1BDB0B0FB6F894DEBF0FBECE
:10237000CDBF09942A88398848885F846E847D841B
:102380008C849B84AA84B984C884DF80EE80FD801D
:102390000C811B81AA81B981CE0FD11D0FB6F89493
:1023A000DEBF0FBECDBFED010895A29FB001B39F68
:1023B000C001A39F700D811D1124911DB29F700D4E
:1023C000811D1124911D08955058BB27AA270E94F2
:1023D000FC110C9411110E94031138F00E940A1193
:1023E00020F039F49F3F19F426F40C9400110EF4F8
:1023F000E095E7FB0C94FA10E92F0E94221158F3A4
:10240000BA17620773078407950720F079F4A6F5D9
:102410000C9444110EF4E0950B2EBA2FA02D0B0155
:10242000B90190010C01CA01A0011124FF27591B19
:1024300099F0593F50F4503E68F11A16F040A22F1F
:10244000232F342F4427585FF3CF46953795279590
:10245000A795F0405395C9F77EF41F16BA0B620B8F
:10246000730B840BBAF09150A1F0FF0FBB1F661FD6
:10247000771F881FC2F70EC0BA0F621F731F841F19
:1024800048F4879577956795B795F7959E3F08F03F
:10249000B0CF9395880F08F09927EE0F9795879501
:1024A00008950E9465120C9411110E940A1158F0AF
:1024B0000E94031140F029F45F3F29F00C94FA10B8
:1024C00051110C9445110C9400110E94221168F3D3
:1024D0009923B1F3552391F3951B550BBB27AA27DD
:1024E00062177307840738F09F5F5F4F220F331F17
:1024F000441FAA1FA9F335D00E2E3AF0E0E832D0DF
:1025000091505040E695001CCAF72BD0FE2F29D0E1
:10251000660F771F881FBB1F261737074807AB07B3
:10252000B0E809F0BB0B802DBF01FF2793585F4F28
:102530003AF09E3F510578F00C94FA100C94451136
:102540005F3FE4F3983ED4F3869577956795B7950A
:10255000F7959F5FC9F7880F911D9695879597F915
:102560000895E1E0660F771F881FBB1F621773078E
:102570008407BA0720F0621B730B840BBA0BEE1FA3
:1025800088F7E09508950E942A1188F09F5798F0E7
:10259000B92F9927B751B0F0E1F0660F771F881F68
:1025A000991F1AF0BA95C9F714C0B13091F00E9482
:1025B0004411B1E008950C944411672F782F8827B7
:1025C000B85F39F0B93FCCF3869577956795B395A9
:1025D000D9F73EF490958095709561957F4F8F4F18
:1025E0009F4F08950E94691008F48FEF08950E948C
:1025F0006910880B990B089597FB072E16F4009429
:1026000007D077FD09D00E94101307FC05D03EF4D7
:10261000909581959F4F0895709561957F4F08958E
:10262000AA1BBB1B51E107C0AA1FBB1FA617B707F8
:1026300010F0A61BB70B881F991F5A95A9F7809514
:102640009095BC01CD010895EE0FFF1F0590F49108
:10265000E02D0994CF93DF938230910510F482E04E
:1026600090E0E091CC02F091CD0220E030E0C0E0BB
:10267000D0E0309711F14081518148175907C0F0DF
:102680004817590761F482819381209719F09B8341
:102690008A832BC09093CD028093CC0226C0211553
:1026A000310519F04217530718F49A01BE01DF01F2
:1026B000EF010280F381E02DDCCF2115310509F116
:1026C000281B390B2430310590F412968D919C9182
:1026D00013976115710521F0FB019383828304C078
:1026E0009093CD028093CC02FD01329644C0FD014F
:1026F000E20FF31F81939193225031092D933C9364
:102700003AC02091CA023091CB02232B41F4209190
:102710000301309104013093CB022093CA0220912F
:102720000101309102012115310541F42DB73EB769
:102730004091050150910601241B350BE091CA021E
:10274000F091CB02E217F307A0F42E1B3F0B2817E2
:10275000390778F0AC014E5F5F4F2417350748F01A
:102760004E0F5F1F5093CB024093CA028193919307
:1027700002C0E0E0F0E0CF01DF91CF9108950F9328
:102780001F93CF93DF93009709F48CC0FC0132971D
:10279000138212820091CC021091CD020115110515
:1027A00081F420813181820F931F2091CA023091E0
:1027B000CB022817390779F5F093CB02E093CA02D0
:1027C00071C0D80140E050E0AE17BF0750F4129638
:1027D0002D913C911397AD012115310509F1D901D6
:1027E000F3CF9D01DA013383228360817181860FEB
:1027F000971F8217930769F4EC0128813981260F0E
:10280000371F2E5F3F4F318320838A819B819383C3
:102810008283452B29F4F093CD02E093CC0242C091
:102820001396FC93EE931297ED01499159919E01F5
:10283000240F351FE217F30771F480819181840F13
:10284000951F029611969C938E9382819381139685
:102850009C938E931297E0E0F0E0D80112968D9150
:102860009C911397009719F0F8018C01F6CF8D9188
:102870009C9198012E5F3F4F820F931F2091CA02B7
:102880003091CB022817390769F4309729F4109258
:10289000CD021092CC0202C0138212821093CB029E
:1028A0000093CA02DF91CF911F910F910895A0E08C
:1028B000B0E0EDE5F4E10C94A211EC01009721F4F5
:1028C000CB010E942A13B8C0FC01E60FF71F9C0140
:1028D00022503109E217F30708F4ACC0D9010D9179
:1028E0001C91119706171707B0F00530110508F471
:1028F0009FC0C80104978617970708F499C0025033
:102900001109061B170B019311936D937C93CF0153
:102910000E94BF138DC05B01A01AB10A4C01800E4A
:10292000911EA091CC02B091CD0240E050E0E12C8C
:10293000F12C109709F44AC0A815B905D1F56D908E
:102940007C901197630182E0C80ED11CCA14DB048D
:1029500080F1A3014A195B096A0182E0C80ED11C0B
:102960001296BC9012971396AC91B5E0CB16D10499
:1029700040F0B282A38351834083D9016D937C934D
:102980000AC00E5F1F4FC301800F911FF901918391
:102990008083EB2DFA2FE114F10431F0D701139667
:1029A000FC93EE93129744C0F093CD02E093CC02D7
:1029B0003FC08D919C9111974817590708F4AC01BD
:1029C0007D0112960D90BC91A02DB3CF8091CA02CB
:1029D0009091CB0288159905E1F446175707C8F482
:1029E0008091010190910201009741F48DB79EB74B
:1029F0004091050150910601841B950BE817F907DA
:102A0000C8F4F093CB02E093CA02F90171836083AA
:102A10000FC0CB010E942A137C01009759F0A80136
:102A2000BE010E942615CE010E94BF13C70104C03B
:102A3000CE0102C080E090E0CDB7DEB7EEE00C94AE
:102A4000BE1181E090E0F8940C943615FB01DC0196
:102A500002C001900D9241505040D8F70895FB01FB
:102A6000DC0101900D920020E1F7089510E0C7EE1F
:102A7000D0E004C0FE010E9424132196C83ED10775
:062A8000C9F7F894FFCF36
:102A86007F0000CE02800000000000960112015F68
:102A9600013D015101DD010000000036030603FE81
:102AA60002EA02DB02DA0270696E207374617465F1
:102AB6003A20000D0A00322E302E31006E616E0073
:082AC600696E66006F76660080
:00000001FF
